:1000000000800020B11B0000F91B0000FB1B00005A
:1000100000000000000000000000000000000000E0
:10002000000000000000000000000000FD1B0000B8
:100030000000000000000000FF1B0000011C000089
:10004000031C0000031C0000A90A0000031C0000A0
:10005000031C000000000000C9190000031C000080
:10006000031C0000031C0000031C0000031C000014
:10007000031C0000031C0000031C0000031C000004
:10008000031C0000031C0000031C0000031C0000F4
:10009000031C0000031C0000031C0000031C0000E4
:1000A000031C0000031C0000000000000000000012
:1000B0000000000000000000000000000000000040
:1000C000164B002B00D1144B9D46402292029A1AE7
:1000D000924600218B460F461348144A121A00F02C
:1000E00067F80F4B002B00D098470E4B002B00D029
:1000F00098470020002104000D000D48002802D080
:100100000C4800E000BF00F02DF82000290000F0AE
:1001100063F900F011F8C0460000080000800020DC
:10012000000000000000000064000020CC0100205E
:100130000000000000000000084B10B5041C002B5C
:1001400002D0002100E000BF054B1868836A002B35
:1001500000D09847201C00F033F8C0460000000093
:10016000581C00000E4B70B500251E1C0D4CE41AE7
:10017000A410A54204D0AB00F35898470135F8E726
:1001800001F05CFD084B00251E1C084CE41AA4106D
:10019000A54204D0AB00F35898470135F8E770BD8D
:1001A000640000206400002064000020640000203F
:1001B000031C8218934202D019700133FAE770478A
:1001C000FEE7C04680B500AF00F01CF8031E06D065
:1001D000094B0A4A1A600A4B802212021A6000F088
:1001E00051F8031E05D08023DA05C123DB0001216D
:1001F000D150BD4680BDC04604050040DFFF07C0AA
:10020000186C004080B500AF1A4B1B68FF221340EA
:10021000012B2AD1184B1B680F22134025D1174BF5
:100220001B68F022134006D1154B1B68F0221340C7
:1002300001D101231AE0114B1B68F0221340102B4F
:1002400006D10F4B1B68F022134001D101230DE0B2
:100250000A4B1B68F0221340302B06D1084B1B6859
:10026000F022134001D1012300E00023181CBD46F9
:1002700080BDC046E00F00F0E40F00F0E80F00F092
:10028000EC0F00F080B500AF0D4B1B68FF22134050
:10029000012B11D10B4B1B680F2213400CD10A4BC1
:1002A0001B68F0221340402B06D1084B1B68F0223C
:1002B000134001D1012300E00023181CBD4680BD7E
:1002C000E00F00F0E40F00F0E80F00F0EC0F00F09A
:1002D00080B582B000AF7860A023DB057A68C132B8
:1002E000FF3292000321D150BD4602B080BDC0460E
:1002F00080B582B000AF78607B681B78022B07D195
:100300007B685B68181C0021002200F04BF90AE0B2
:100310007B681B78012B06D17B685B68181C002169
:10032000002200F03FF9BD4602B080BD90B58DB00F
:1003300002AF1423FB18174A13CA13C31223FB1866
:1003400000221A803B1C144A1A603B1C01225A608E
:100350003B1C124A9A603B1C80225200DA60142334
:10036000F818391C0E4A1223FB180093032300F0DF
:1003700077FC031C7B627B6A3B623B6A002B05D0E7
:100380003B6A181C0021002200F00CF9BD460BB09E
:1003900090BDC0465C1C0000640000206800002086
:1003A000F102000080B582B000AFC046FB1D181CF2
:1003B00000F086FD031EF9D1FB1D1B78181CBD46FD
:1003C00002B080BD80B500AF1620FFF781FF152079
:1003D000FFF77EFFBD4680BD80B5C2B000AFFFF71E
:1003E000F1FF0823FF33FB1800221A70FFF79EFF6E
:1003F000284B842252009446BC44634400221A7065
:10040000FFF7D0FF021CFB1DFF331A70FB1DFF33EB
:100410001B780D2B29D10823FF33FB181B781D4AAD
:10042000842149008C46BC4462440021D1540823F5
:10043000FF33FB1800221A703B1C181C00F060F8F8
:10044000031C7A1CFF321360C0467B1CFF331B6801
:100450001B78181C00F046FD031EF6D1C0460A208A
:1004600000F040FD031EFAD113E00823FF33FB1810
:100470001B780822FF32BA18591C1170191C054B41
:10048000842252009446BC446344FA1DFF32127821
:100490005A54B5E7F8FEFFFF80B582B000AF786030
:1004A000A023DA057B6801219940A123DB00D1500C
:1004B000BD4602B080BDC04680B582B000AF786056
:1004C000A023DB057A68012191400A1C02495A5099
:1004D000BD4602B080BDC0460C05000080B582B0AC
:1004E00000AF7860A023DA05A223DB00D2587B6836
:1004F000DA40131C01221340181CBD4602B080BD17
:1005000080B582B000AF78607A681A4B101C191C55
:1005100001F078FB031E07D01620FFF7CDFF152052
:10052000FFF7BAFF144B21E07A68144B101C191C1A
:1005300001F068FB031E07D01520FFF7BDFF162052
:10054000FFF7AAFF0C4B11E07A680D4B101C191C29
:1005500001F058FB031E08D01620FFF7BFFF031E53
:1005600001D0054B02E0074B00E0064B181CBD46CE
:1005700002B080BD681C00006C1C0000701C0000F4
:10058000741C0000781C000080B500AFBFF34F8FD3
:10059000024B034ADA60BFF34F8FFEE700ED00E045
:1005A0000400FA0580B584B000AFF860B9607A60E5
:1005B000FFF7EAFFBD4604B080BDC04680B584B0F9
:1005C00000AF78607B689B68FB607B68DA68FB68DB
:1005D000D31A181CBD4604B080BDC04680B584B097
:1005E00000AFF860B960BB1D1A80BB68002B01D159
:1005F0000E231CE0BB1D1B88002B06D0BB1D1B88D7
:10060000013BBA1D1288134001D009230FE0FB689B
:10061000BA681A60BB1D1B88013B9AB2FB689A80BE
:10062000FB6800229A60FB680022DA600023181C35
:10063000BD4604B080BDC04680B582B000AF7860D2
:100640000A1CFB1C1A707B68181CFFF7B7FF021C02
:100650007B689B889A4211D87B681A687B68DB6844
:10066000796889880B40D318FA1C12781A707B6855
:10067000DB685A1C7B68DA60002300E00423181C46
:10068000BD4602B080BDC04680B582B000AF786084
:1006900039607B68181CFFF791FF031E11D07B683F
:1006A0001A687B689B68796889880B40D3181A7828
:1006B0003B681A707B689B685A1C7B689A600023B1
:1006C00000E00523181CBD4602B080BD80B582B095
:1006D00000AF021CFB1D1A70064BFA1D1278111C8C
:1006E0001F220A40012191400A1C1A60BD4602B037
:1006F00080BDC04600E100E080B582B000AF021CC2
:10070000FB1D1A70074AFB1D1B78191C1F230B4089
:10071000012199400B1C191CC0235B00D150BD4620
:1007200002B080BD00E100E0B0B582B000AF021CB5
:100730003960FB1D1A70FB1D1B787F2B2FD92D4CA8
:10074000FB1D1B781A1C0F231340083B9908294AEC
:10075000FB1D1B78181C0F230340083B9B08063326
:100760009B00D3185B68FA1D1278101C032202400C
:10077000D200101CFF228240D2431A403B689B01EA
:10078000FF200340F81D0078051C03202840C0000E
:1007900083401A438B1D9B00E3185A6026E0164CD9
:1007A000FB1D1B785BB29B081349FA1D127852B2ED
:1007B0009208C03292005258F91D0978081C032192
:1007C0000140C900081CFF218140C94311403A681B
:1007D0009201FF200240F81D0078051C03202840EC
:1007E000C00082400A43C0339B001A51BD4602B08C
:1007F000B0BDC04600ED00E000E100E080B582B091
:1008000000AF7860A023DB057A68C132FF32920026
:100810000321D150BD4602B080BDC04680B582B034
:1008200000AF78600A1CFB1C1A70A023DB05FA1CC1
:1008300012789200111C7A68C132FF329200D150B6
:10084000BD4602B080BDC04680B584B000AF7860C0
:100850007B689B68FB607B68DA68FB68D31A181CAE
:10086000BD4604B080BDC04680B500AF074B002236
:100870001A70074B0122DA60054B01225A60044AC4
:10088000A023DB000021D150BD4680BD8C0100209B
:100890000020004080B582B000AF084B0122DA6032
:1008A000074B01221A703B1C03221A70054B1B6870
:1008B0003A1C101C9847BD4602B080BD0020004085
:1008C0008C0100208801002080B582B000AF144B5D
:1008D0001B78DBB2022B02D0124B01229A60124A23
:1008E000FB1D101C191CFFF7CFFE031E02D0FFF7E3
:1008F000D1FF12E00B4AC2239B008021D150094A4C
:10090000FB1D1B78191C094BD150054B02221A7094
:10091000044AC1239B008021D150BD4602B080BD56
:100920008C01002000200040780100201C05000000
:1009300080B500AF064B181CFFF786FF031E02D0E0
:10094000FFF7C2FF01E0FFF7A5FFBD4680BDC0462F
:100950007801002080B500AF084B1B78DBB2012B7B
:1009600002D0022B03D006E0FFF77EFF03E0034B2B
:1009700003221A70C046BD4680BDC0468C010020CF
:1009800080B500AF114B1B78DBB2002B02D0032BDC
:1009900015D018E00E4AA023DB000421D1500C4BE7
:1009A00001221A600B4B181CFFF74EFF031E02D0EA
:1009B000FFF78AFF07E0054B01221A7003E0034BA3
:1009C00002221A70C046BD4680BDC0468C01002080
:1009D000002000407801002080B500AF094B1B7853
:1009E000DBB2012B0ADB022B05DD032B00D005E077
:1009F000FFF73AFF03E0FFF79BFF00E0C046BD466C
:100A000080BDC0468C01002080B500AF044B1B7830
:100A1000DBB2012B01D1FFF757FFBD4680BDC046B9
:100A20008C01002080B500AFFFF71EFFBD4680BDE2
:100A300080B582B000AF021CFB1D1A70FB1D1B7835
:100A4000042B13D89A000B4BD3181B689F46FFF753
:100A500081FF0CE0FFF794FF09E0FFF7BDFF06E020
:100A6000FFF7D2FF03E0FFF7DDFF00E0C046BD4621
:100A700002B080BD7C1C000080B582B000AF786001
:100A80000A1CFB1C1A707B68181C00F08DFF031EEB
:100A900003D00020FFF7CCFF02E00120FFF7C8FFE2
:100AA000BD4602B080BDC04680B588B000AF354AB3
:100AB00084235B00D358002B33D0324A84235B005D
:100AC0000021D1502F4AA323DB00D358DBB22E4A9A
:100AD000101C191CFFF7B0FD031CFB61FB69002B08
:100AE0000ED01023FB1801221A701023FB18FA698C
:100AF0005A60264B1B681022BA18101C984710E049
:100B0000214B181CFFF7A0FE031E012B09D108235F
:100B1000FB1800221A701D4B1B680822BA18101C03
:100B20009847184A8E235B00D358002B07D0154AEC
:100B30008E235B000021D1500320FFF779FF114A7B
:100B400092235B00D358002B19D00E4A92235B00EE
:100B50000021D1500B4A9023DB00D358BB610949D7
:100B60009023DB00BA69CA503B1C02221A703B1C5E
:100B7000BA695A60054B1B683A1C101C9847BD4661
:100B800008B080BD002000406801002088010020DE
:100B900080B500AF154AA023DB000421D150134AD1
:100BA00084235B000021D150104A8E235B0000217A
:100BB000D1500E490D4A0E4BD358012293430C4A93
:100BC0008B500A49A123DB0001225242CA50074937
:100BD000A223DB0001225242CA50044B01229A6038
:100BE000024B01221A60BD4680BDC0460020004075
:100BF0006C05000080B582B000AF7860164AA02373
:100C0000DB000421D150144A84235B000021D15021
:100C1000114A8E235B000021D1500F490E4A0F4B21
:100C2000D358012213430D4A8B500B4A7B68DB7863
:100C3000191CA223DB00D150074A7B689B78191C42
:100C4000A123DB00D150044B01229A60024B012208
:100C50001A60BD4602B080BD002000406C05000057
:100C600080B588B000AFF860B9607A601A1CFB1CD0
:100C70001A70884B00221A70874B7A681A60BB681A
:100C8000002B01D1072300E1BB681A68BB685B68D1
:100C90009BB28249081C111C1A1CFFF79FFC031C05
:100CA000FB61FB69002B01D0FB69EEE0BB689A6831
:100CB000BB68DB689BB27A49081C111C1A1CFFF741
:100CC0008DFC031CFB61FB69002B01D0FB69DCE0A0
:100CD000FB685B78181CFFF791FDFB681B78181CFC
:100CE0000021FFF79BFD6F4AFB685B78191C6E4B78
:100CF000D1506C4AFB681B78191C6C4BD150694968
:100D0000FB689B686A4A8B50FB685B79002B04D0B8
:100D1000644A684B0E21D15003E0624A654B0021C2
:100D2000D150FB681B79022B00D077E000F0EEFC7D
:100D3000031C1A1C01235340DBB2002B08D000F027
:100D4000A3FC031CFB61FB69002B01D0FB699CE049
:100D50001823FB1800221A8000229A701823FB180F
:100D600001225A70FB689B781A1C1823FB18101C70
:100D7000191C00F0D9FC031CFB61FB69002B01D09E
:100D8000FB6982E04749A223DB0001225242CA509C
:100D9000444AFB689B78191CA123DB00D1504149D0
:100DA000404A444BD35801221343424A8B501423E8
:100DB000FB1803221A701423FB1800225A70142304
:100DC000FB1800229A701423FB180022DA70FB68CB
:100DD000DB78191C1423FA18374B081C111C1A1C39
:100DE00000F0F2FC031CFB61FB69002B01D0FB69E6
:100DF0004BE0FB68DB78181C012100F04FFDFB681D
:100E0000DB78181C00F0D0FD031E03D00020FFF794
:100E10000FFE14E00120FFF70BFE10E0FB681B79CA
:100E2000012B07D1FB68181CFFF7E4FE194B0122C8
:100E30001A7004E0FFF7ACFE164B01221A70BB6A71
:100E40001B88002B08D11D4B1B785A1CD1B21B4AA2
:100E500011709AB2BB6A1A801249C2239B00012208
:100E60005242CA500F49C1239B00A1229200CA508E
:100E70000220FFF741FCFB1C1B780220191CFFF726
:100E800053FC0220FFF722FC0023181CBD4608B0CB
:100E900080BDC0468C010020880100206801002030
:100EA00078010020002000400C050000140500001F
:100EB000240500006C050000790A00006000002095
:100EC00080B582B000AF7860054A7B68101C191CA1
:100ED000FFF7DAFB031C181CBD4602B080BDC046FC
:100EE0006801002080B584B000AF021CFB1D1A70A1
:100EF000084AFB1D1B78101C191CFFF79DFB031CE7
:100F0000FB600220FFF794FDFB68181CBD4604B08F
:100F100080BDC0467801002080B582B000AF021CC1
:100F2000FB1D1A70064BFA1D1278111C1F220A4075
:100F3000012191400A1C1A60BD4602B080BDC04626
:100F400000E100E080B582B000AF021CFB1D1A700A
:100F5000074AFB1D1B78191C1F230B4001219940D8
:100F60000B1C191CC0235B00D150BD4602B080BDD4
:100F700000E100E0B0B582B000AF021C3960FB1D9B
:100F80001A70FB1D1B787F2B2FD92D4CFB1D1B7856
:100F90001A1C0F231340083B9908294AFB1D1B7894
:100FA000181C0F230340083B9B0806339B00D318F3
:100FB0005B68FA1D1278101C03220240D200101C3C
:100FC000FF228240D2431A403B689B01FF2003402E
:100FD000F81D0078051C03202840C00083401A43F8
:100FE0008B1D9B00E3185A6026E0164CFB1D1B78F6
:100FF0005BB29B081349FA1D127852B29208C032B4
:1010000092005258F91D0978081C03210140C900BB
:10101000081CFF218140C94311403A689201FF201A
:101020000240F81D0078051C03202840C0008240C3
:101030000A43C0339B001A51BD4602B0B0BDC04642
:1010400000ED00E000E100E080B582B000AF021CDE
:10105000FB1D1A70BB1D0A1C1A70BB1D1A78FB1DE4
:101060001B785BB2181C111CFFF784FFFB1D1B785B
:101070005BB2181CFFF766FFFB1D1B785BB2181CE8
:10108000FFF74AFFBD4602B080BDC04680B582B0C2
:1010900000AF021CBB1D1A80BB1D1B88181C00F072
:1010A0001DF8031C1B68013B5A425341DBB2181C5C
:1010B000BD4602B080BDC04680B582B000AF021C04
:1010C000BB1D1A80BB1D1B88181C00F007F8031CF1
:1010D00000221A60BD4602B080BDC04680B582B015
:1010E00000AF021CBB1D1A80BB1D1B88034A94461F
:1010F0006344181CBD4602B080BDC046006000407D
:1011000080B582B000AF78600349C1239B007A6844
:10111000CA50BD4602B080BD0060004080B582B0BC
:1011200000AF7860044AC1239B00D3587A6813400B
:10113000181CBD4602B080BD0060004080B582B082
:1011400000AF78600849084A7B684533FF339B004D
:101150009B5801221A437B684533FF339B005A504A
:10116000BD4602B080BDC0460060004090B585B06D
:1011700000AFF860B960FB1D1A701549144AFB688E
:101180004533FF339B009B58124A1A40FB68453396
:10119000FF339B005A500E480D4AFB684533FF331E
:1011A0009B009A58BB681902F8235B011940FB1D8C
:1011B0001B781B041C1CC0239B0223400B431A43B7
:1011C000FB684533FF339B001A50BD4605B090BD08
:1011D00000600040FFE0FCFF80B582B000AF7860A7
:1011E000064A7B684533FF339B009A58F8235B011E
:1011F00013401B0A181CBD4602B080BD00600040B1
:1012000080B582B000AF7860074A7B684533FF3312
:101210009B009A58C0239B0213401B0CDBB2181C86
:10122000BD4602B080BDC0460060004090B585B0AC
:1012300000AFF860B960191CFB1D1A70BB1D0A1CB9
:101240001A701949184AFB684533FF339B009B58B5
:10125000164A1A40FB684533FF339B005A50124828
:10126000114AFB684533FF339B009A58BB6819024B
:10127000F8235B011940FB1D1B781B041C1CC023B9
:101280009B0223401943BB1D1B781B051C1C80239C
:101290005B0323400B431A43FB684533FF339B003A
:1012A0001A50BD4605B090BD00600040FFE0ECFF65
:1012B00080B582B000AF7860A023DB057A68C132C8
:1012C000FF3292000321D150BD4602B080BDC0461E
:1012D00080B582B000AF78600A1CFB1C1A70A02396
:1012E000DB05FA1C12789200111C7A68C132FF32B9
:1012F0009200D150BD4602B080BDC04680B584B0DA
:1013000000AF7860A023DB057A68C132FF3292001B
:10131000D35802229343FB60A023DB057A68C132D5
:10132000FF329200F968D150BD4604B080BDC0467E
:1013300080B582B000AF78600A1CFB1C1A70A02335
:10134000DB05A022D2057968C131FF3189008A58B6
:101350000D4911407A68C132FF329200D150A0236A
:10136000DB05A022D2057968C131FF3189008A5896
:10137000F91C0978090411437A68C132FF329200DE
:10138000D150BD4602B080BDFFFFFCFF80B582B0EA
:1013900000AF7860A023DA057B6801219940A12382
:1013A000DB00D150BD4602B080BDC04680B582B0E2
:1013B00000AF7860A023DB057A68012191400A1C08
:1013C00002495A50BD4602B080BDC0460C0500001F
:1013D00080B582B000AF7860A023DA05A223DB00DD
:1013E000D2587B68DA40131C01221340181CBD46FA
:1013F00002B080BD80B500AFA023DA05A223DB00D8
:10140000D358181CBD4680BD80B582B000AF78604F
:10141000A023DB057A68C132FF329200D258C02384
:101420009B0213401B0CDBB2181CBD4602B080BDF2
:1014300080B582B000AF7860064A7B68D318183355
:101440001B785BB201335A1E9341DBB2181CBD46B8
:1014500002B080BD9001002080B582B000AF7860FE
:101460000D4A7B68D31818331B785BB2002B09DB5D
:10147000094A7B68D31818331B785BB2032B01DC55
:10148000012300E000231A1C01231340DBB2181CC7
:10149000BD4602B080BDC0469001002080B582B03C
:1014A00000AF7860074A7B68D31818331B78012295
:1014B0005BB2032B01DC00231A1CD3B2181CBD46FF
:1014C00002B080BD9001002080B582B000AF78608E
:1014D000064A7B68D31818331B78DB43DBB2DB0981
:1014E000DBB2181CBD4602B080BDC0469001002092
:1014F00080B584B000AFF860B9607A601A1CFB1C3C
:101500001A70BB68D9B20F4AFB68D31818330A1C8B
:101510001A700C4BBA6892007968D150FB1C1B788A
:1015200001225340DBB2002B09D0BB68043BFA68B0
:10153000D0B2044A3821D3185B18021C1A70BD4679
:1015400004B080BD9001002080B582B000AF78600B
:10155000044A7B68D3181833FE221A70BD4602B0C5
:1015600080BDC0469001002080B582B000AF786099
:10157000044A7B68D3181833FF221A70BD4602B0A4
:1015800080BDC0469001002080B582B000AF786079
:10159000044A7B68D31818331B785BB2181CBD460D
:1015A00002B080BD9001002080B582B000AF7860AD
:1015B000034B7A689200D358181CBD4602B080BD18
:1015C0009001002080B588B000AFF860B960FB1DC5
:1015D0001A701F23FB18FF221A70FB1D1B78002BAB
:1015E00001D0002300E004237B61FB1D1B78002B4E
:1015F00001D0042300E006233B617B69BB6114E05A
:10160000104BBA699200D35801330BD1F868B9690D
:10161000BA68FB1D1B78FFF76BFF1F23FB18BA6925
:101620001A7006E0BB690133BB61BA693B699A4233
:10163000E6D31F23FB181B785BB2181CBD4608B00D
:1016400080BDC0469001002080B582B000AF021C72
:10165000FB1D1A70FB1D1A780A4B920001214942AA
:10166000D150FB1D1B78032B08D9FB1D1B78043BB5
:10167000044A3821D3185B18FF221A70BD4602B005
:1016800080BDC0469001002080B582B000AF1E4BE7
:101690003A229B5C002B01D0082331E0FB1D002285
:1016A0001A7009E0FB1D1B78181CFFF75DFFFB1D7E
:1016B0001A78FB1D01321A70FB1D1B781F2BF1D904
:1016C000FB1D00221A7009E0FB1D1B78181CFFF798
:1016D000BBFFFB1D1A78FB1D01321A70FB1D1B7826
:1016E000052BF1D906200121FFF7AEFC80231B0654
:1016F000181CFFF705FD044B3A22012199540023E1
:10170000181CBD4602B080BD9001002080B500AF1E
:10171000044B3A229B5C5A1E9341DBB2181CBD4617
:1017200080BDC0469001002090B585B000AF7860C4
:1017300039600023FB607B68181CFFF779FE031EED
:1017400002D00823FB603AE03B689B78002B1ED058
:101750000B23FC187B68181C00210122FFF732FFC5
:10176000031C23700B23FB181B785BB201330BD0D7
:101770000B23FB18002018563B681A783B685B78EF
:101780007968FFF753FD06E00423FB6003E07B6804
:10179000181CFFF7D9FEFB68002B10D17B68181CC2
:1017A000FFF786FD3B685B78012B04D17B68181C32
:1017B000FFF7ECFD03E07B68181CFFF7F7FDFB6803
:1017C000181CBD4605B090BD90B587B000AFF8605D
:1017D000B9607A6000237B61FB68181CFFF774FE18
:1017E000031E02D008237B6151E0BB68DB78132223
:1017F000BC18F9687A68081C111C1A1CFFF7E2FE75
:10180000031C23701323FB181B785BB201333CD0FD
:10181000BB689B78002B04D0FB68181CFFF76EFD9B
:1018200006E0BB685B78FA68101C191CFFF750FDD6
:10183000BB68DB78002B0CD01323FB180021595612
:10184000BB681B78FA68081C111C1A1CFFF78EFC79
:101850001DE01323FB181B785BB2043B1322BA185C
:10186000127852B2043A0C4938208A1812181178AA
:10187000BA6812789201D2B20A43D0B2064A38212D
:10188000D3185B18021C1A7001E004237B617B698A
:10189000181CBD4607B090BD9001002080B586B0F1
:1018A00000AF78600A1CFB1C1A707B68181CFFF7DD
:1018B000F5FD031E3DD07B68181CFFF765FE031C79
:1018C000043B384A3821D3185B181A781623FB18C2
:1018D0001A701523FB181622BA18127892091A707A
:1018E0001523FB181B78032B0FD1FFF783FD011C79
:1018F0007B6801229A40131C0B4001D0032200E0B8
:1019000002221723FB181A700AE01523FB181B7814
:10191000012B01D1022200E003221723FB181A70C9
:101920007A681723FB181B78101C191CFFF700FDA1
:1019300035E07B68181CFFF78FFD031E2FD07B68F6
:10194000181CFFF721FE031C3B613B699BB240332F
:101950009AB20E23FB1892001A803B69181CFFF7FD
:10196000EDFB0E23FB181B88181CFFF7A5FBFB1CC7
:101970001B78002B13D07B68181CFFF705FE031C97
:10198000181CFFF711FE031CBB60BB68002B06D0C0
:1019900001223B699A40131C181CFFF7B1FBBD469E
:1019A00006B080BD9001002080B582B000AF7860A5
:1019B0007B68181CFFF70CFD031C5A1E9341DBB219
:1019C000181CBD4602B080BD90B58DB000AF00239D
:1019D000FB620023BB622223FB18802252001A8084
:1019E0000123FB6100237B6224E02223FB181B8878
:1019F000181CFFF74BFB031E0FD0FB69181CFFF7E9
:101A00008DFB031E09D02223FB181B88181CFFF72F
:101A100053FBFA6AFB691343FB62FB695B00FB61E2
:101A20002223FB182222BA18128804321A807B6AF9
:101A300001337B627B6A032BD7D9BE235B00181C62
:101A4000FFF724FB031E0DD0BE235B00181CFFF71D
:101A500033FBFB6A802212061343FB62FFF7CAFCCA
:101A6000031CBB62FB6A0F2213402DD00123FB61D4
:101A700000237B6225E0FB69FA6A13401BD07B6A76
:101A8000181CFFF7A9FB031CBB611723FC187B6A1A
:101A9000181CFFF7B5FB031C23707B6A181CFFF7AB
:101AA00083FD031C3B61B9691723FB181A783B6956
:101AB000081C111C9847FB695B00FB617B6A0133C2
:101AC0007B627B6A032BD6D9FB6A002B00DB6AE0C2
:101AD00000237B6264E0354A38217B6AD3185B18A7
:101AE0001B785BB2013358D0304A38217B6AD31857
:101AF0005B181A780F23FB181A700F23FB181B783A
:101B0000C0229343BB60BB68181CFFF73DFD031C5C
:101B1000181CFFF749FD031C7B607B68002B3CD041
:101B2000FB1C0F22BA18127892091A70BB680122A6
:101B30009A40131CFB61BC1CBB68181CFFF764FCBB
:101B4000031C2370FB69BA6A134003D0BB1C1B78CB
:101B5000022B07D0FB69BA6A13401ED1BB1C1B784D
:101B6000032B1AD1FB1C1B78032B0FD1BB1C1B783A
:101B7000022B01D1032200E002227B1C1A70BA68FA
:101B80007B1C1B78101C191CFFF7D2FBB968FB1CCF
:101B90001A787B68081C111C98477B6A01337B62AA
:101BA0007B6A012B97D9BD460DB090BD90010020F6
:101BB00003210A4802680A430260094802680A438E
:101BC00002600849084A094B9B1A03DD043BC858C8
:101BD000D050FBDC064880470648004724050040FB
:101BE00054050040981C0000000000206400002004
:101BF000C5010000C1000000FEE7FEE7FEE7FEE7CA
:101C0000FEE7FEE710B50378021C002B05D109782A
:101C1000181C00290FD00FE001321378002B08D0D8
:101C20000023C85C002806D0D45C8442F4D1013380
:101C3000F7E7181C00E0101C10BD0000F8B5C04606
:101C4000F8BC08BC9E467047F8B5C046F8BC08BC56
:101C50009E46704743000000000000200B09080A60
:101C60000100000000509D0030000000300A00001C
:101C70003100000032000000310A00004E0A00006E
:101C8000540A0000600A00005A0A0000660A0000B8
:081C900030E4FF7F01000000B9
:101C9800000000000000000000000000000000003C
:101CA800000000000000000000000000000000002C
:101CB800541C0000000000000000000000000000AC
:101CC800000000000000000000000000000000000C
:101CD80000000000000000000000000000000000FC
:101CE80000000000000000000000000000000000EC
:041CF80001000000E7
:0400000300001BB12D
:00000001FF
