:1000000000800020D51A00001D1B00001F1B0000EF
:1000100000000000000000000000000000000000E0
:10002000000000000000000000000000211B000094
:100030000000000000000000231B0000251B000042
:10004000271B0000271B0000CD090000271B000014
:10005000271B000000000000ED180000271B000017
:10006000271B0000271B0000271B0000271B000088
:10007000271B0000271B0000271B0000271B000078
:10008000271B0000271B0000271B0000271B000068
:10009000271B0000271B0000271B0000271B000058
:1000A000271B0000271B00000000000000000000CC
:1000B0000000000000000000000000000000000040
:1000C000164B002B00D1144B9D46402292029A1AE7
:1000D000924600218B460F461348144A121A00F02C
:1000E00067F80F4B002B00D098470E4B002B00D029
:1000F00098470020002104000D000D48002802D080
:100100000C4800E000BF00F02DF82000290000F0AE
:1001100049F900F011F8C0460000080000800020F6
:10012000000000000000000068000020E001002046
:100130000000000000000000084B10B5041C002B5C
:1001400002D0002100E000BF054B1868836A002B35
:1001500000D09847201C00F033F8C0460000000093
:10016000C42A00000E4B70B500251E1C0D4CE41A6D
:10017000A410A54204D0AB00F35898470135F8E726
:1001800002F092FC084B00251E1C084CE41AA41037
:10019000A54204D0AB00F35898470135F8E770BD8D
:1001A000680000206800002068000020680000202F
:1001B000031C8218934202D019700133FAE770478A
:1001C000FEE7C04680B500AF00F01CF8031E06D065
:1001D000094B0A4A1A600A4B802212021A6000F088
:1001E00051F8031E05D08023DA05C123DB0001216D
:1001F000D150BD4680BDC04604050040DFFF07C0AA
:10020000186C004080B500AF1A4B1B68FF221340EA
:10021000012B2AD1184B1B680F22134025D1174BF5
:100220001B68F022134006D1154B1B68F0221340C7
:1002300001D101231AE0114B1B68F0221340102B4F
:1002400006D10F4B1B68F022134001D101230DE0B2
:100250000A4B1B68F0221340302B06D1084B1B6859
:10026000F022134001D1012300E00023181CBD46F9
:1002700080BDC046E00F00F0E40F00F0E80F00F092
:10028000EC0F00F080B500AF0D4B1B68FF22134050
:10029000012B11D10B4B1B680F2213400CD10A4BC1
:1002A0001B68F0221340402B06D1084B1B68F0223C
:1002B000134001D1012300E00023181CBD4680BD7E
:1002C000E00F00F0E40F00F0E80F00F0EC0F00F09A
:1002D00080B582B000AF78607B681B78022B07D1B5
:1002E0007B685B68181C0021002200F0BDF80AE062
:1002F0007B681B78012B06D17B685B68181C00218A
:10030000002200F0B1F8BD4602B080BD90B58DB0BE
:1003100002AF1423FB18174A13CA13C31223FB1886
:1003200000221A803B1C144A1A603B1C01225A60AE
:100330003B1C124A9A603B1C80225200DA60142354
:10034000F818391C0E4A1223FB180093032300F0FF
:1003500019FC031C7B627B6A3B623B6A002B05D065
:100360003B6A181C0021002200F07EF8BD460BB04D
:1003700090BDC046C82A0000680000206C00002024
:10038000D102000080B582B000AFC046FB1D181C32
:1003900000F028FD031EF9D1FB1D1B78181CBD467B
:1003A00002B080BD80B5C2B000AF0823FF33FB1898
:1003B00000221A70FFF7AAFF234B842252009446B2
:1003C000BC44634400221A70FFF7DCFF021CFB1DD3
:1003D000FF331A70C046FB1DFF331B78181C00F05A
:1003E00013FD031EF7D1FB1DFF331B780A2B15D11C
:1003F0000823FF33FB181B78134A842149008C46DD
:10040000BC4462440021D1540823FF33FB1800226E
:100410001A703B1D181C01F087FB13E00823FF3303
:10042000FB181B780822FF32BA18591C1170191CCE
:10043000054B842252009446BC446344FA1DFF32AB
:1004400012785A54C0E7C046FCFEFFFF80B500AFEB
:10045000BFF34F8F024B034ADA60BFF34F8FFEE7C3
:1004600000ED00E00400FA0580B584B000AFF8604C
:10047000B9607A60FFF7EAFFBD4604B080BDC046B0
:1004800080B584B000AF78607B689B68FB607B6858
:10049000DA68FB68D31A181CBD4604B080BDC0469C
:1004A00080B584B000AFF860B960BB1D1A80BB682E
:1004B000002B01D10E231CE0BB1D1B88002B06D096
:1004C000BB1D1B88013BBA1D1288134001D00923B4
:1004D0000FE0FB68BA681A60BB1D1B88013B9AB22B
:1004E000FB689A80FB6800229A60FB680022DA6051
:1004F0000023181CBD4604B080BDC04680B582B044
:1005000000AF78600A1CFB1C1A707B68181CFFF790
:10051000B7FF021C7B689B889A4211D87B681A68D7
:100520007B68DB68796889880B40D318FA1C1278DD
:100530001A707B68DB685A1C7B68DA60002300E075
:100540000423181CBD4602B080BDC04680B582B0F1
:1005500000AF786039607B68181CFFF791FF031EBD
:1005600011D07B681A687B689B68796889880B4022
:10057000D3181A783B681A707B689B685A1C7B6892
:100580009A60002300E00523181CBD4602B080BD20
:1005900080B586B000AFF860B9607A6000237B61F7
:1005A00009E0BB685A1CBA601B78181C00F02CFCD0
:1005B0007B6901337B617A697B689A42F1DB7B68F6
:1005C000181CBD4606B080BD80B584B000AFF86091
:1005D000B9607A60C046BB68181C00F003FC031EBB
:1005E000052BF8D00123181CBD4604B080BDC046C1
:1005F00080B582B000AF021CFB1D1A70064BFA1DBD
:100600001278111C1F220A40012191400A1C1A6015
:10061000BD4602B080BDC04600E100E080B582B0BA
:1006200000AF021CFB1D1A70074AFB1D1B78191C2A
:100630001F230B40012199400B1C191CC0235B0098
:10064000D150BD4602B080BD00E100E0B0B582B03F
:1006500000AF021C3960FB1D1A70FB1D1B787F2B3D
:100660002FD92D4CFB1D1B781A1C0F231340083B60
:100670009908294AFB1D1B78181C0F230340083BCF
:100680009B0806339B00D3185B68FA1D1278101C78
:1006900003220240D200101CFF228240D2431A40A3
:1006A0003B689B01FF200340F81D0078051C0320D8
:1006B0002840C00083401A438B1D9B00E3185A60FA
:1006C00026E0164CFB1D1B785BB29B081349FA1DF4
:1006D000127852B29208C03292005258F91D09782D
:1006E000081C03210140C900081CFF218140C943A7
:1006F00011403A689201FF200240F81D0078051C65
:1007000003202840C00082400A43C0339B001A5196
:10071000BD4602B0B0BDC04600ED00E000E100E023
:1007200080B582B000AF7860A023DB057A68C13263
:10073000FF3292000321D150BD4602B080BDC046B9
:1007400080B582B000AF78600A1CFB1C1A70A02331
:10075000DB05FA1C12789200111C7A68C132FF3254
:100760009200D150BD4602B080BDC04680B584B075
:1007700000AF78607B689B68FB607B68DA68FB6829
:10078000D31A181CBD4604B080BDC04680B500AF6A
:10079000074B00221A70074B0122DA60054B012239
:1007A0005A60044AA023DB000021D150BD4680BD21
:1007B000900100200020004080B582B000AF084BBF
:1007C0000122DA60074B01221A703B1C03221A70C7
:1007D000054B1B683A1C101C9847BD4602B080BDF3
:1007E00000200040900100208C01002080B582B0E4
:1007F00000AF144B1B78DBB2022B02D0124B01224C
:100800009A60124AFB1D101C191CFFF79FFE031E65
:1008100002D0FFF7D1FF12E00B4AC2239B008021D8
:10082000D150094AFB1D1B78191C094BD150054BAF
:1008300002221A70044AC1239B008021D150BD4678
:1008400002B080BD90010020002000407C0100200B
:100850001C05000080B500AF064B181CFFF786FF93
:10086000031E02D0FFF7C2FF01E0FFF7A5FFBD4660
:1008700080BDC0467C01002080B500AF084B1B78CE
:10088000DBB2012B02D0022B03D006E0FFF77EFF84
:1008900003E0034B03221A70C046BD4680BDC0462C
:1008A0009001002080B500AF114B1B78DBB2002B0C
:1008B00002D0032B15D018E00E4AA023DB00042140
:1008C000D1500C4B01221A600B4B181CFFF74EFF46
:1008D000031E02D0FFF78AFF07E0054B01221A70C2
:1008E00003E0034B02221A70C046BD4680BDC046DD
:1008F00090010020002000407C01002080B500AF66
:10090000094B1B78DBB2012B0ADB022B05DD032B25
:1009100000D005E0FFF73AFF03E0FFF79BFF00E0A0
:10092000C046BD4680BDC0469001002080B500AFE6
:10093000044B1B78DBB2012B01D1FFF757FFBD46FB
:1009400080BDC0469001002080B500AFFFF71EFFBC
:10095000BD4680BD80B582B000AF021CFB1D1A7081
:10096000FB1D1B78042B13D89A000B4BD3181B6864
:100970009F46FFF781FF0CE0FFF794FF09E0FFF7C8
:10098000BDFF06E0FFF7D2FF03E0FFF7DDFF00E069
:10099000C046BD4602B080BDD42A000080B582B0FA
:1009A00000AF78600A1CFB1C1A707B68181C00F0F2
:1009B0008DFF031E03D00020FFF7CCFF02E00120D3
:1009C000FFF7C8FFBD4602B080BDC04680B588B005
:1009D00000AF354A84235B00D358002B33D0324A12
:1009E00084235B000021D1502F4AA323DB00D3587E
:1009F000DBB22E4A101C191CFFF780FD031CFB61A3
:100A0000FB69002B0ED01023FB1801221A70102353
:100A1000FB18FA695A60264B1B681022BA18101C82
:100A2000984710E0214B181CFFF7A0FE031E012B76
:100A300009D10823FB1800221A701D4B1B680822DD
:100A4000BA18101C9847184A8E235B00D358002B05
:100A500007D0154A8E235B000021D1500320FFF7F9
:100A600079FF114A92235B00D358002B19D00E4A0C
:100A700092235B000021D1500B4A9023DB00D35816
:100A8000BB6109499023DB00BA69CA503B1C0222B2
:100A90001A703B1CBA695A60054B1B683A1C101C43
:100AA0009847BD4608B080BD002000406C01002082
:100AB0008C01002080B500AF154AA023DB00042183
:100AC000D150134A84235B000021D150104A8E2359
:100AD0005B000021D1500E490D4A0E4BD358012224
:100AE00093430C4A8B500A49A123DB000122524256
:100AF000CA500749A223DB0001225242CA50044BCC
:100B000001229A60024B01221A60BD4680BDC04698
:100B1000002000406C05000080B582B000AF786016
:100B2000164AA023DB000421D150144A84235B0021
:100B30000021D150114A8E235B000021D1500F4972
:100B40000E4A0F4BD358012213430D4A8B500B4AC8
:100B50007B68DB78191CA223DB00D150074A7B6835
:100B60009B78191CA123DB00D150044B01229A6011
:100B7000024B01221A60BD4602B080BD0020004039
:100B80006C05000080B588B000AFF860B9607A608D
:100B90001A1CFB1C1A70884B00221A70874B7A684B
:100BA0001A60BB68002B01D1072300E1BB681A68FB
:100BB000BB685B689BB28249081C111C1A1CFFF7BA
:100BC0006FFC031CFB61FB69002B01D0FB69EEE0AD
:100BD000BB689A68BB68DB689BB27A49081C111C29
:100BE0001A1CFFF75DFC031CFB61FB69002B01D0A5
:100BF000FB69DCE0FB685B78181CFFF791FDFB6884
:100C00001B78181C0021FFF79BFD6F4AFB685B787F
:100C1000191C6E4BD1506C4AFB681B78191C6C4B2D
:100C2000D1506949FB689B686A4A8B50FB685B79C5
:100C3000002B04D0644A684B0E21D15003E0624A75
:100C4000654B0021D150FB681B79022B00D077E067
:100C500000F0EEFC031C1A1C01235340DBB2002BF6
:100C600008D000F0A3FC031CFB61FB69002B01D042
:100C7000FB699CE01823FB1800221A8000229A705E
:100C80001823FB1801225A70FB689B781A1C182342
:100C9000FB18101C191C00F0D9FC031CFB61FB693C
:100CA000002B01D0FB6982E04749A223DB0001222F
:100CB0005242CA50444AFB689B78191CA123DB00AE
:100CC000D1504149404A444BD35801221343424A30
:100CD0008B501423FB1803221A701423FB180022D4
:100CE0005A701423FB1800229A701423FB18002258
:100CF000DA70FB68DB78191C1423FA18374B081CD0
:100D0000111C1A1C00F0F2FC031CFB61FB69002B98
:100D100001D0FB694BE0FB68DB78181C012100F077
:100D20004FFDFB68DB78181C00F0D0FD031E03D0DC
:100D30000020FFF70FFE14E00120FFF70BFE10E08C
:100D4000FB681B79012B07D1FB68181CFFF7E4FE39
:100D5000194B01221A7004E0FFF7ACFE164B01227A
:100D60001A70BB6A1B88002B08D11D4B1B785A1CBC
:100D7000D1B21B4A11709AB2BB6A1A801249C223BF
:100D80009B0001225242CA500F49C1239B00A1225D
:100D90009200CA500220FFF741FCFB1C1B78022086
:100DA000191CFFF753FC0220FFF722FC0023181C3C
:100DB000BD4608B080BDC046900100208C010020D7
:100DC0006C0100207C010020002000400C05000088
:100DD00014050000240500006C0500009D090000BA
:100DE0006400002080B582B000AF7860054A7B685F
:100DF000101C191CFFF7AAFB031C181CBD4602B0EF
:100E000080BDC0466C01002080B584B000AF021CDC
:100E1000FB1D1A70084AFB1D1B78101C191CFFF7DC
:100E20006DFB031CFB600220FFF794FDFB68181CA0
:100E3000BD4604B080BDC0467C01002080B582B0B4
:100E400000AF021CFB1D1A70064BFA1D1278111C14
:100E50001F220A40012191400A1C1A60BD4602B0BF
:100E600080BDC04600E100E080B582B000AF021C4A
:100E7000FB1D1A70074AFB1D1B78191C1F230B4012
:100E8000012199400B1C191CC0235B00D150BD46A9
:100E900002B080BD00E100E0B0B582B000AF021C3E
:100EA0003960FB1D1A70FB1D1B787F2B2FD92D4C31
:100EB000FB1D1B781A1C0F231340083B9908294A75
:100EC000FB1D1B78181C0F230340083B9B080633AF
:100ED0009B00D3185B68FA1D1278101C0322024095
:100EE000D200101CFF228240D2431A403B689B0173
:100EF000FF200340F81D0078051C03202840C00097
:100F000083401A438B1D9B00E3185A6026E0164C61
:100F1000FB1D1B785BB29B081349FA1D127852B275
:100F20009208C03292005258F91D0978081C03211A
:100F30000140C900081CFF218140C94311403A68A3
:100F40009201FF200240F81D0078051C0320284074
:100F5000C00082400A43C0339B001A51BD4602B014
:100F6000B0BDC04600ED00E000E100E080B582B019
:100F700000AF021CFB1D1A70BB1D0A1C1A70BB1DA2
:100F80001A78FB1D1B785BB2181C111CFFF784FF3D
:100F9000FB1D1B785BB2181CFFF766FFFB1D1B785F
:100FA0005BB2181CFFF74AFFBD4602B080BDC046C9
:100FB00080B582B000AF021CBB1D1A80BB1D1B8810
:100FC000181C00F01DF8031C1B68013B5A425341DA
:100FD000DBB2181CBD4602B080BDC04680B582B0F1
:100FE00000AF021CBB1D1A80BB1D1B88181C00F023
:100FF00007F8031C00221A60BD4602B080BDC0463F
:1010000080B582B000AF021CBB1D1A80BB1D1B88BF
:10101000034A94466344181CBD4602B080BDC046D6
:101020000060004080B582B000AF78600349C12302
:101030009B007A68CA50BD4602B080BD0060004087
:1010400080B582B000AF7860044AC1239B00D358BA
:101050007A681340181CBD4602B080BD0060004095
:1010600080B582B000AF78600849084A7B68453394
:10107000FF339B009B5801221A437B684533FF33A3
:101080009B005A50BD4602B080BDC0460060004083
:1010900090B585B000AFF860B960FB1D1A701549B6
:1010A000144AFB684533FF339B009B58124A1A4091
:1010B000FB684533FF339B005A500E480D4AFB68CE
:1010C0004533FF339B009A58BB681902F8235B0134
:1010D0001940FB1D1B781B041C1CC0239B022340D2
:1010E0000B431A43FB684533FF339B001A50BD4640
:1010F00005B090BD00600040FFE0FCFF80B582B00D
:1011000000AF7860064A7B684533FF339B009A58EE
:10111000F8235B0113401B0A181CBD4602B080BDBA
:101120000060004080B582B000AF7860074A7B68FD
:101130004533FF339B009A58C0239B0213401B0C7E
:10114000DBB2181CBD4602B080BDC0460060004046
:1011500090B585B000AFF860B960191CFB1D1A701E
:10116000BB1D0A1C1A701949184AFB684533FF3326
:101170009B009B58164A1A40FB684533FF339B007F
:101180005A501248114AFB684533FF339B009A5866
:10119000BB681902F8235B011940FB1D1B781B0477
:1011A0001C1CC0239B0223401943BB1D1B781B053D
:1011B0001C1C80235B0323400B431A43FB6845330D
:1011C000FF339B001A50BD4605B090BD0060004043
:1011D000FFE0ECFF80B582B000AF7860A023DB05B4
:1011E0007A68C132FF3292000321D150BD4602B06D
:1011F00080BDC04680B582B000AF78600A1CFB1C81
:101200001A70A023DB05FA1C12789200111C7A6870
:10121000C132FF329200D150BD4602B080BDC046FF
:1012200080B584B000AF7860A023DB057A68C13256
:10123000FF329200D35802229343FB60A023DB05C8
:101240007A68C132FF329200F968D150BD4604B0CD
:1012500080BDC04680B582B000AF78600A1CFB1C20
:101260001A70A023DB05A022D2057968C131FF31B5
:1012700089008A580D4911407A68C132FF329200C4
:10128000D150A023DB05A022D2057968C131FF31FE
:1012900089008A58F91C0978090411437A68C13217
:1012A000FF329200D150BD4602B080BDFFFFFCFF6F
:1012B00080B582B000AF7860A023DA057B68012199
:1012C0009940A123DB00D150BD4602B080BDC0468D
:1012D00080B582B000AF7860A023DB057A68012179
:1012E00091400A1C02495A50BD4602B080BDC0461A
:1012F0000C05000080B582B000AF7860A023DA054D
:10130000A223DB00D2587B68DA40131C0122134071
:10131000181CBD4602B080BD80B500AFA023DA0521
:10132000A223DB00D358181CBD4680BD80B582B017
:1013300000AF7860A023DB057A68C132FF329200EB
:10134000D258C0239B0213401B0CDBB2181CBD46B5
:1013500002B080BD80B582B000AF7860064A7B687D
:10136000D31818331B785BB201335A1E9341DBB29A
:10137000181CBD4602B080BD9401002080B582B02B
:1013800000AF78600D4A7B68D31818331B785BB2C6
:10139000002B09DB094A7B68D31818331B785BB232
:1013A000032B01DC012300E000231A1C012313405E
:1013B000DBB2181CBD4602B080BDC04694010020BF
:1013C00080B582B000AF7860074A7B68D3181833C5
:1013D0001B7801225BB2032B01DC00231A1CD3B261
:1013E000181CBD4602B080BD9401002080B582B0BB
:1013F00000AF7860064A7B68D31818331B78DB434C
:10140000DBB2DB09DBB2181CBD4602B080BDC046B2
:101410009401002080B584B000AFF860B9607A60B4
:101420001A1CFB1C1A70BB68D9B20F4AFB68D31890
:1014300018330A1C1A700C4BBA6892007968D150A4
:10144000FB1C1B7801225340DBB2002B09D0BB6888
:10145000043BFA68D0B2044A3821D3185B18021C46
:101460001A70BD4604B080BD9401002080B582B0E2
:1014700000AF7860044A7B68D3181833FE221A70D4
:10148000BD4602B080BDC0469401002080B582B048
:1014900000AF7860044A7B68D3181833FF221A70B3
:1014A000BD4602B080BDC0469401002080B582B028
:1014B00000AF7860044A7B68D31818331B785BB29E
:1014C000181CBD4602B080BD9401002080B582B0DA
:1014D00000AF7860034B7A689200D358181CBD4661
:1014E00002B080BD9401002080B588B000AFF860E4
:1014F000B960FB1D1A701F23FB18FF221A70FB1D19
:101500001B78002B01D0002300E004237B61FB1D2E
:101510001B78002B01D0042300E006233B617B698C
:10152000BB6114E0104BBA699200D35801330BD160
:10153000F868B969BA68FB1D1B78FFF76BFF1F23BA
:10154000FB18BA691A7006E0BB690133BB61BA695E
:101550003B699A42E6D31F23FB181B785BB2181C29
:10156000BD4608B080BDC0469401002080B582B061
:1015700000AF021CFB1D1A70FB1D1A780A4B92006B
:1015800001214942D150FB1D1B78032B08D9FB1DBB
:101590001B78043B044A3821D3185B18FF221A70C9
:1015A000BD4602B080BDC0469401002080B582B027
:1015B00000AF1E4B3A229B5C002B01D0082331E088
:1015C000FB1D00221A7009E0FB1D1B78181CFFF799
:1015D0005DFFFB1D1A78FB1D01321A70FB1D1B7885
:1015E0001F2BF1D9FB1D00221A7009E0FB1D1B788F
:1015F000181CFFF7BBFFFB1D1A78FB1D01321A7088
:10160000FB1D1B78052BF1D906200121FFF7AEFC4D
:1016100080231B06181CFFF705FD044B3A2201210D
:1016200099540023181CBD4602B080BD94010020CF
:1016300080B500AF044B3A229B5C5A1E9341DBB24B
:10164000181CBD4680BDC0469401002090B585B0F1
:1016500000AF786039600023FB607B68181CFFF7DF
:1016600079FE031E02D00823FB603AE03B689B78BA
:10167000002B1ED00B23FC187B68181C00210122B4
:10168000FFF732FF031C23700B23FB181B785BB2A0
:1016900001330BD00B23FB18002018563B681A7837
:1016A0003B685B787968FFF753FD06E00423FB6035
:1016B00003E07B68181CFFF7D9FEFB68002B10D1F4
:1016C0007B68181CFFF786FD3B685B78012B04D113
:1016D0007B68181CFFF7ECFD03E07B68181CFFF724
:1016E000F7FDFB68181CBD4605B090BD90B587B0EE
:1016F00000AFF860B9607A6000237B61FB68181C5A
:10170000FFF774FE031E02D008237B6151E0BB6823
:10171000DB781322BC18F9687A68081C111C1A1CA3
:10172000FFF7E2FE031C23701323FB181B785BB248
:1017300001333CD0BB689B78002B04D0FB68181C9D
:10174000FFF76EFD06E0BB685B78FA68101C191C99
:10175000FFF750FDBB68DB78002B0CD01323FB1880
:1017600000215956BB681B78FA68081C111C1A1C0A
:10177000FFF78EFC1DE01323FB181B785BB2043BC4
:101780001322BA18127852B2043A0C4938208A1837
:1017900012181178BA6812789201D2B20A43D0B204
:1017A000064A3821D3185B18021C1A7001E0042382
:1017B0007B617B69181CBD4607B090BD9401002079
:1017C00080B586B000AF78600A1CFB1C1A707B687D
:1017D000181CFFF7F5FD031E3DD07B68181CFFF7B2
:1017E00065FE031C043B384A3821D3185B181A786D
:1017F0001623FB181A701523FB181622BA18127834
:1018000092091A701523FB181B78032B0FD1FFF7D1
:1018100083FD011C7B6801229A40131C0B4001D000
:10182000032200E002221723FB181A700AE0152396
:10183000FB181B78012B01D1022200E003221723A1
:10184000FB181A707A681723FB181B78101C191CD8
:10185000FFF700FD35E07B68181CFFF78FFD031EC6
:101860002FD07B68181CFFF721FE031C3B613B69EE
:101870009BB240339AB20E23FB1892001A803B6948
:10188000181CFFF7EDFB0E23FB181B88181CFFF735
:10189000A5FBFB1C1B78002B13D07B68181CFFF7E3
:1018A00005FE031C181CFFF711FE031CBB60BB6880
:1018B000002B06D001223B699A40131C181CFFF72D
:1018C000B1FBBD4606B080BD9401002080B582B05A
:1018D00000AF78607B68181CFFF70CFD031C5A1ED4
:1018E0009341DBB2181CBD4602B080BD90B58DB0EF
:1018F00000AF0023FB620023BB622223FB1880227F
:1019000052001A800123FB6100237B6224E0222322
:10191000FB181B88181CFFF74BFB031E0FD0FB693D
:10192000181CFFF78DFB031E09D02223FB181B8810
:10193000181CFFF753FBFA6AFB691343FB62FB6950
:101940005B00FB612223FB182222BA1812880432A2
:101950001A807B6A01337B627B6A032BD7D9BE2353
:101960005B00181CFFF724FB031E0DD0BE235B0099
:10197000181CFFF733FBFB6A802212061343FB623D
:10198000FFF7CAFC031CBB62FB6A0F2213402DD079
:101990000123FB6100237B6225E0FB69FA6A1340A7
:1019A0001BD07B6A181CFFF7A9FB031CBB61172324
:1019B000FC187B6A181CFFF7B5FB031C23707B6ABD
:1019C000181CFFF783FD031C3B61B9691723FB1843
:1019D0001A783B69081C111C9847FB695B00FB6186
:1019E0007B6A01337B627B6A032BD6D9FB6A002BAF
:1019F00000DB6AE000237B6264E0354A38217B6AC1
:101A0000D3185B181B785BB2013358D0304A3821A9
:101A10007B6AD3185B181A780F23FB181A700F23F0
:101A2000FB181B78C0229343BB60BB68181CFFF7F0
:101A30003DFD031C181CFFF749FD031C7B607B6800
:101A4000002B3CD0FB1C0F22BA18127892091A7096
:101A5000BB6801229A40131CFB61BC1CBB68181CAC
:101A6000FFF764FC031C2370FB69BA6A134003D0C0
:101A7000BB1C1B78022B07D0FB69BA6A13401ED12E
:101A8000BB1C1B78032B1AD1FB1C1B78032B0FD11B
:101A9000BB1C1B78022B01D1032200E002227B1C1D
:101AA0001A70BA687B1C1B78101C191CFFF7D2FB3C
:101AB000B968FB1C1A787B68081C111C98477B6A64
:101AC00001337B627B6A012B97D9BD460DB090BD77
:101AD0009401002003210A4802680A430260094871
:101AE00002680A4302600849084A094B9B1A03DD51
:101AF000043BC858D050FBDC0648804706480047E6
:101B00002405004054050040842B00000000002004
:101B100068000020C5010000C1000000FEE7FEE7EC
:101B2000FEE7FEE7FEE7FEE70FB40B4B13B51C68BC
:101B3000002C05D0A369002B02D1201C00F050F826
:101B400005AB201CA168049A019300F05BF916BC58
:101B500008BC04B01847C0466000002008B5024920
:101B600000F0AEF808BDC046E5260000002310B521
:101B7000041C03604360836081814366C28103610A
:101B800043618361191C08225C30FEF711FB054B91
:101B900024626362044BA362044BE362044B23633D
:101BA00010BDC046552300007D230000B523000072
:101BB000E123000070B568254B1E5D430E1C291CF7
:101BC000743100F09FF8041E08D000212A1C016027
:101BD00046600C30A0606832FEF7EAFA201C70BD47
:101BE000836913B5002B28D18364C3640365134B49
:101BF000134A1B6882620193984201D101238361D9
:101C0000041C00F01FF86060201C00F01BF8A060AE
:101C1000201C00F017F80421E06000226068FFF744
:101C2000A5FFA06809210122FFF7A0FFE0681221AB
:101C30000222FFF79BFF0123A36113BDC42A00000A
:101C40005D1B0000F8B51D4B061C1D68AB69002B21
:101C500002D1281CFFF7C4FF4835AC686B68013B14
:101C600005D40C22A75E002F10D06834F7E72B684C
:101C7000002B06D1301C0421FFF79CFF28600028B0
:101C800001D02D68E9E70C23336016E00123201C06
:101C90005B42E3810233A38167662760A7606760C8
:101CA00027616761A7615C30391C0822FEF780FA62
:101CB000201C6763A763A764E764F8BDC42A00001B
:101CC000F7B5041C071C002601914834002C16D0DF
:101CD0006368A5680093009B013B00930DD4AB891A
:101CE000012B08D90E22AB5E013304D0381C291C0D
:101CF000019B984706436835EDE72468E6E7301C0A
:101D0000FEBD0000032370B5CC1C9C430834051CA9
:101D10000C2C01D20C2405E0002C03DA0C2300204B
:101D20002B6042E08C42F9D3204A1368101C191C26
:101D3000002913D00A68121B0DD40B2A02D90A609D
:101D40008B181FE08B4202D15A6802601BE04A6880
:101D50005A600B1C17E00B1C4968E9E7144E336806
:101D6000002B03D1281C00F0E3FA3060281C211C52
:101D700000F0DEFA031C421CD0D00322C61C96439E
:101D800086420AD11C60181C07210B301A1D88439B
:101D9000821A0AD05142995007E0311A281C00F0EB
:101DA000C7FA431CBAD0331CECE770BDD401002045
:101DB000D0010020936810B5013B9360002B05DA39
:101DC0009469A34208DBCBB20A2B05D01368581CD8
:101DD00010601970C8B201E000F008FB10BDF8B542
:101DE000061C0F1C141CD518AC4208D02178301CDE
:101DF0003A1CFFF7DFFF0134431CF5D100E000205F
:101E0000F8BD0000F0B59FB0061C0F1C02920593B0
:101E1000002804D08369002B01D1FFF7E1FE794B44
:101E20009F4201D1776808E0774B9F4201D1B768A4
:101E300003E0764B9F4200D1F768BB891B070AD5A8
:101E40003B69002B07D0002306AD6B6120336B7616
:101E50001033AB763DE0301C391C00F033FB00281A
:101E6000F1D001204042CAE0059A111D1268059187
:101E7000002A7EDB0992013423782E2B00D189E0E1
:101E800021786348032200F0C5FC002808D0604B8D
:101E90000134C01A40238340181C2B681843286063
:101EA0002178631C5B4806220293297600F0B2FC7D
:101EB000002800D191E0584B002B00D084E007228D
:101EC000059B07339343083305936B69039A9B186B
:101ED0006B61029C2378002B04D1029BE31A0493CC
:101EE00011D003E0252BF8D00134F3E7049B301C1C
:101EF000391C029AFFF773FF431C7BD06A69049B6D
:101F0000944663446B612378002B73D00122002335
:101F100052426A6002A95432521801342B60EB60BD
:101F2000AB601370AB6521783C48052200F072FC71
:101F3000002809D0394B0134C01A01238340181CF2
:101F40002B6818432860EEE72B68DA0604D5532285
:101F5000202102A8121811701A0704D553222B2130
:101F600002A81218117022782A2A00D17CE7099B56
:101F700005E05242EA60022213432B607BE722789D
:101F8000303A092A04D80A214B4301349B18F6E75A
:101F9000099371E763782A2B09D1059B02341A1D36
:101FA0001B680592002B0DDA01235B420AE0002337
:101FB00001342278303A092A04D80A214B430134EB
:101FC0009B18F6E707935BE705AB0093301C291CD1
:101FD0003A1C134B00E000BF07E005AB0093301C38
:101FE000291C3A1C0E4B00F08BF80390039B013325
:101FF00000D06AE7BB895B0600D532E70B981FB0BB
:10200000F0BDC046E82A0000082B0000282B000085
:102010004E2B0000522B000000000000482B000057
:10202000DF1D0000F7B5171C01930A698B6800904B
:102030000C1C934200DA131C221C3B6043321278C2
:10204000002A01D001333B6023689B0602D53B6820
:1020500002333B60062523681D401ED0231C4333FA
:102060001B785A1E9341226892061CD53020E11835
:102070004031C870211C5A1C45310978A2184032E1
:102080000233D1700FE0221C01230098019919320C
:10209000089EB047431C0ED00135E3683A689B1A8E
:1020A0009D42F0DBDAE7221C009801994332089D3B
:1020B000A847431C02D10120404220E006232068AB
:1020C000E1683A6803400025042B03D18D1AEB43E5
:1020D000DB171D40A3682269934201DD9B1AED18AE
:1020E0000027AF420ADA221C0123009801991A3214
:1020F000089EB047431CDED00137F2E70020FEBD4A
:10210000F0B58BB006920A1C4332079305900492F7
:102110000A7E0C1C109B6E2A00D1A8E011D8632AFD
:1021200022D009D8002A00D1B2E0582A00D0C2E05B
:1021300045310A707C4A4FE0642A1DD0692A1BD0C1
:10214000B9E0732A00D1A7E009D86F2A29D0702AF4
:1021500000D0B0E0202209680A43226037E0752AE7
:102160001FD0782A33D0A6E00E1C1A684236111D03
:10217000196013683370A1E021681A68080606D454
:10218000490604D5111D19600023D55E02E0111D1A
:1021900019601568002D3BDA2D23049A6D421370E7
:1021A00036E021681A68080606D4490604D5156881
:1021B000111D1960ADB202E0111D196015685A4B6E
:1021C000227E03930A276F2A1DD108271BE0221CB9
:1021D000782145321170554A19680392081D22680A
:1021E00018600D68100602D4500600D5ADB2D307B2
:1021F00002D520231A4322601027002D03D120236B
:1022000022689A432260231C002243331A7002E0A2
:102210000A27454B03936368A360002B03DB04226A
:10222000216891432160002D02D1049E002B0ED025
:10223000049E281C391C00F0FDFB039B013E5B5CE7
:10224000281C3370391C00F06FFB051EF1D1082FDC
:1022500009D12368DB0706D563682269934202DC53
:102260003023013E3370049B9B1B23612BE00968E4
:102270001A68080607D4490605D5111D19601368A8
:10228000A28A1A8004E0111D1960136862691A603D
:102290000023049E236116E01A68111D1960166858
:1022A0000021301C626800F0B5FA002801D0801BC4
:1022B0006060636803E0261C4236327001232361AC
:1022C0000023049A1370079B05980093211C069B1A
:1022D00009AAFFF7A7FE431C02D10120404221E0DA
:1022E000236905980699321C079DA847431CF4D022
:1022F00023689B0705D4099BE068984212DA181CF2
:1023000010E00025E368099A9B1A9D42F3DA221C2B
:102310000123059806991932079EB047431CDCD06B
:102320000135EFE70BB0F0BD592B00006A2B000020
:1023300038B50023064C051C081C236000F0A6FBE2
:10234000431C03D12368002B00D02B6038BDC0464E
:10235000DC01002038B50C1C0E25495F00F0ACFAFA
:10236000002803DB636D1B18636503E0A289024B41
:102370001340A38138BDC046FFEFFFFFF8B51E1C18
:102380008B89051C0C1C171CDB0505D50E23C95EAB
:102390000022022300F0D2F9A289054B281C134029
:1023A000A3813A1C0E23E15E331C00F077F8F8BDE0
:1023B000FFEFFFFF38B50C1C0E25495F00F0BEF99A
:1023C000A389421C03D1054A1340A38104E0802263
:1023D00052011343A381606538BDC046FFEFFFFF84
:1023E00008B50E23C95E00F0E1F808BD70B5051C04
:1023F0000E1C141C002804D08369002B01D1FFF7A8
:10240000EFFB234B9C4201D16C6808E0214B9C42BE
:1024100001D1AC6803E0204B9C4200D1EC68A36979
:10242000A360A3891B070AD52369002B07D0236863
:102430002269F6B2981A636998420FDB08E0281CFB
:10244000211C00F03FF80028F1D0012040421DE09F
:10245000281C211C00F046F90028F6D1A3680130A1
:10246000013BA36023685A1C22601E706369984276
:1024700005D0A389301CDB0708D50A2E06D1281CFD
:10248000211C00F02FF90028DFD1301C70BDC046A0
:10249000E82A0000082B0000282B000038B5051C96
:1024A0000020074C2060081C111C1A1CFEF770F855
:1024B000431C03D12368002B00D02B6038BDC046DD
:1024C000DC010020354B70B51D68061C0C1C002D6E
:1024D00005D0AB69002B02D1281CFFF781FB304BE4
:1024E0009C4201D16C6808E02E4B9C4201D1AC6843
:1024F00003E02D4B9C4200D1EC68A3899AB21107EE
:1025000023D4D10607D40922012032603732134385
:10251000A381404240E0530713D5616B002908D0E6
:10252000231C4433994202D0301C00F07FF9002371
:1025300063632422A3899343A381002363602369F7
:1025400023600822A3891343A3812369002B0BD1A5
:10255000A023A2899B00134080229200934203D0C3
:10256000301C211C00F0FEF80123A289134005D085
:102570000023A36063695B42A36103E0910700D479
:102580006369A36000202369834205D1130603D544
:1025900040231A43A281013870BDC046600000206C
:1025A000E82A0000082B0000282B000038B5002383
:1025B000064C051C081C236000F048FA431C03D19C
:1025C0002368002B00D02B6038BDC046DC01002002
:1025D000F7B58A89051C0C1C13075ED44B68002BC9
:1025E00002DC0B6C002B1ADDE76A002F17D00023EA
:1025F0002E682B6080235B011A4001D0626D15E0CC
:10260000281C216A0123B847021C431C0ED12B68E9
:10261000002B0BD01D2B01D0162B02D12E600020D9
:102620005EE04021A3890B43A38159E0A3895B07A6
:1026300006D56368D21A636B002B01D0236CD21AC3
:102640000023281C216AE76AB847A389421C06D1E7
:102650002A68002A03D01D2A01D0162A19D1002287
:10266000626022692260DB0405D5431C02D12B681D
:10267000002B00D16065616B2E600029CFD0231C38
:102680004433994202D0281C00F0D0F80020606347
:1026900026E040221343A38122E00F69002FBED021
:1026A0000B680F60DB1B01930023920700D14B697D
:1026B000A360019B002BB2DD281C216A3A1C019B00
:1026C000A66AB047002806DC40220120A3894042C8
:1026D0001343A38104E0019B3F181B1A0193E8E711
:1026E000FEBD000038B50B69051C0C1C002B01D188
:1026F00000201CE0002804D08369002B01D1FFF7E3
:102700006FFA0B4B9C4201D16C6808E0094B9C426C
:1027100001D1AC6803E0084B9C4200D1EC680C226C
:10272000A35E002BE4D0281C211CFFF751FF38BD0D
:10273000E82A0000082B0000282B000038B5051CF3
:102740000020074C2060081C111C1A1C00F096F990
:10275000431C03D12368002B00D02B6038BDC0463A
:10276000DC010020F0B58B8991B09B0706D50B1CCE
:1027700047330B600B6101234B6145E00C1C0E23BA
:10278000C95E061C002904DA8023A5891D4010D1EA
:102790000CE001AA00F0A4F80028F5DBF023029D6C
:1027A0001B021D40194BED186B425D418027FF0055
:1027B00001E000254027301C391CFFF7A3FA002850
:1027C0000CD1A3899A051FD402221343A381231C91
:1027D0004733236023610123636115E080220C4BA2
:1027E000B362A38920601343A38120616761002D38
:1027F0000AD00E23E15E301C00F084F8002803D0DC
:102800000122A3891343A38111B0F0BD00E0FFFFB3
:102810005D1B0000C9B28218904204D003788B423D
:1028200002D00130F8E700207047000030B50029E1
:102830003ED004390B68002B00DAC9181D4A136812
:10284000141C002B02D14B60116031E099420DD273
:1028500008680A189A4203D11368C3180B605368BA
:102860004B60216024E08A4203D8131C5A68002A76
:10287000F9D11D685C198C420BD109686918581888
:102880001960904214D110685268091819605A6092
:102890000EE08C4202D90C23036009E008680C1892
:1028A000944203D114685268001908604A60596064
:1028B00030BDC046D401002038B5051C0020074CAF
:1028C0002060081C111C1A1CFDF77EFE431C03D15E
:1028D0002368002B00D02B6038BDC046DC010020EF
:1028E00038B50023064C051C081C111C236000F0A1
:1028F000B5F8431C03D12368002B00D02B6038BDF2
:10290000DC01002038B50023064C051C081C2360A0
:1029100000F0ACF8431C03D12368002B00D02B60DF
:1029200038BDC046DC010020002243088B4274D32E
:1029300003098B425FD3030A8B4244D3030B8B42C0
:1029400028D3030C8B420DD3FF22090212BA030CC9
:102950008B4202D31212090265D0030B8B4219D3AA
:1029600000E0090AC30B8B4201D3CB03C01A5241CA
:10297000830B8B4201D38B03C01A5241430B8B4212
:1029800001D34B03C01A5241030B8B4201D30B03FB
:10299000C01A5241C30A8B4201D3CB02C01A524122
:1029A000830A8B4201D38B02C01A5241430A8B42E5
:1029B00001D34B02C01A5241030A8B4201D30B02CE
:1029C000C01A5241CDD2C3098B4201D3CB01C01AE8
:1029D000524183098B4201D38B01C01A52414309F2
:1029E0008B4201D34B01C01A524103098B4201D3E0
:1029F0000B01C01A5241C3088B4201D3CB00C01A4D
:102A0000524183088B4201D38B00C01A52414308C4
:102A10008B4201D34B00C01A5241411A00D20146E9
:102A2000524110467047FFE701B5002000F00CF856
:102A300002BDC0460029F7D003B5FFF775FF0EBCF5
:102A40004243891A1847C0467047C04658220120A1
:102A5000014B40421A607047DC01002058220120DF
:102A6000014B40421A607047DC0100205822024BA3
:102A700000201A607047C046DC0100205822012067
:102A8000014B40421A607047DC010020044A136881
:102A9000002B03D018181060181C7047014BF9E781
:102AA000D8010020E0010020F8B5C046F8BC08BC01
:102AB0009E467047F8B5C046F8BC08BC9E467047B5
:102AC00043000000000000200B09080A010000007C
:102AD00000509D0072090000780900008409000080
:102AE0007E0900008A0900000000000000000000CC
:102AF00000000000000000000000000000000000D6
:102B000000000000000000000000000000000000C5
:102B100000000000000000000000000000000000B5
:102B200000000000000000000000000000000000A5
:102B30000000000000000000000000000000000095
:102B40000000000000000000232D302B2000686CE6
:102B50004C006566674546470030313233343536C0
:102B600037383941424344454600303132333435F9
:0C2B700036373839616263646566000026
:082B7C0044D5FF7F01000000B9
:102B840000000000E82A0000082B0000282B0000A9
:102B94000000000000000000000000000000000031
:102BA400C02A000000000000000000000000000037
:102BB4000000000000000000000000000000000011
:102BC4000000000000000000000000000000000001
:102BD40000000000000000000000000000000000F1
:082BE4000000002001000000C8
:0400000300001AD50A
:00000001FF
